{
  "contractName": "Attestation",
  "abi": [
    {
      "constant": true,
      "inputs": [],
      "name": "degreeCount",
      "outputs": [
        {
          "name": "",
          "type": "uint256"
        }
      ],
      "payable": false,
      "stateMutability": "view",
      "type": "function"
    },
    {
      "constant": true,
      "inputs": [],
      "name": "universityCount",
      "outputs": [
        {
          "name": "",
          "type": "uint256"
        }
      ],
      "payable": false,
      "stateMutability": "view",
      "type": "function"
    },
    {
      "constant": true,
      "inputs": [
        {
          "name": "",
          "type": "uint256"
        }
      ],
      "name": "degrees",
      "outputs": [
        {
          "name": "id",
          "type": "uint256"
        },
        {
          "name": "studentId",
          "type": "uint256"
        },
        {
          "name": "universityId",
          "type": "uint256"
        },
        {
          "name": "verified",
          "type": "bool"
        },
        {
          "name": "degreeName",
          "type": "string"
        },
        {
          "name": "courseName",
          "type": "string"
        },
        {
          "name": "passYear",
          "type": "uint256"
        }
      ],
      "payable": false,
      "stateMutability": "view",
      "type": "function"
    },
    {
      "constant": true,
      "inputs": [
        {
          "name": "",
          "type": "address"
        }
      ],
      "name": "students",
      "outputs": [
        {
          "name": "id",
          "type": "uint256"
        },
        {
          "name": "name",
          "type": "string"
        },
        {
          "name": "dob",
          "type": "string"
        },
        {
          "name": "email",
          "type": "string"
        },
        {
          "name": "gpa",
          "type": "string"
        },
        {
          "name": "universityId",
          "type": "uint256"
        },
        {
          "name": "studentAddr",
          "type": "address"
        },
        {
          "name": "isInit",
          "type": "bool"
        }
      ],
      "payable": false,
      "stateMutability": "view",
      "type": "function"
    },
    {
      "constant": true,
      "inputs": [],
      "name": "studentCount",
      "outputs": [
        {
          "name": "",
          "type": "uint256"
        }
      ],
      "payable": false,
      "stateMutability": "view",
      "type": "function"
    },
    {
      "constant": true,
      "inputs": [
        {
          "name": "",
          "type": "address"
        }
      ],
      "name": "universities",
      "outputs": [
        {
          "name": "id",
          "type": "uint256"
        },
        {
          "name": "name",
          "type": "string"
        },
        {
          "name": "location",
          "type": "string"
        },
        {
          "name": "email",
          "type": "string"
        },
        {
          "name": "universityAddr",
          "type": "address"
        },
        {
          "name": "isInit",
          "type": "bool"
        }
      ],
      "payable": false,
      "stateMutability": "view",
      "type": "function"
    },
    {
      "inputs": [],
      "payable": false,
      "stateMutability": "nonpayable",
      "type": "constructor"
    },
    {
      "constant": false,
      "inputs": [
        {
          "name": "name",
          "type": "string"
        },
        {
          "name": "location",
          "type": "string"
        },
        {
          "name": "email",
          "type": "string"
        }
      ],
      "name": "addUniversity",
      "outputs": [],
      "payable": false,
      "stateMutability": "nonpayable",
      "type": "function"
    },
    {
      "constant": false,
      "inputs": [
        {
          "name": "name",
          "type": "string"
        },
        {
          "name": "dob",
          "type": "string"
        },
        {
          "name": "email",
          "type": "string"
        },
        {
          "name": "gpa",
          "type": "string"
        },
        {
          "name": "universityId",
          "type": "uint256"
        },
        {
          "name": "dn",
          "type": "string"
        },
        {
          "name": "cn",
          "type": "string"
        },
        {
          "name": "passYear",
          "type": "uint256"
        }
      ],
      "name": "addStudent",
      "outputs": [],
      "payable": false,
      "stateMutability": "nonpayable",
      "type": "function"
    },
    {
      "constant": false,
      "inputs": [
        {
          "name": "degreeId",
          "type": "uint256"
        }
      ],
      "name": "verifyDegree",
      "outputs": [],
      "payable": false,
      "stateMutability": "nonpayable",
      "type": "function"
    }
  ],
  "bytecode": "0x608060405234801561001057600080fd5b506000808190555060006001819055506000600281905550611b4b806100376000396000f300608060405260043610610099576000357c0100000000000000000000000000000000000000000000000000000000900463ffffffff168063175447be1461009e57806320f722a31461027957806330b37026146102a65780633660096b1461039b578063418374f3146103c657806381f1c3bc146103f1578063a6c807a91461052a578063e581f9ee14610776578063f0995560146107a1575b600080fd5b3480156100aa57600080fd5b50610277600480360381019080803590602001908201803590602001908080601f0160208091040260200160405190810160405280939291908181526020018383808284378201915050505050509192919290803590602001908201803590602001908080601f0160208091040260200160405190810160405280939291908181526020018383808284378201915050505050509192919290803590602001908201803590602001908080601f0160208091040260200160405190810160405280939291908181526020018383808284378201915050505050509192919290803590602001908201803590602001908080601f016020809104026020016040519081016040528093929190818152602001838380828437820191505050505050919291929080359060200190929190803590602001908201803590602001908080601f0160208091040260200160405190810160405280939291908181526020018383808284378201915050505050509192919290803590602001908201803590602001908080601f01602080910402602001604051908101604052809392919081815260200183838082843782019150505050505091929192908035906020019092919050505061097a565b005b34801561028557600080fd5b506102a460048036038101908080359060200190929190505050610d02565b005b3480156102b257600080fd5b50610399600480360381019080803590602001908201803590602001908080601f0160208091040260200160405190810160405280939291908181526020018383808284378201915050505050509192919290803590602001908201803590602001908080601f0160208091040260200160405190810160405280939291908181526020018383808284378201915050505050509192919290803590602001908201803590602001908080601f0160208091040260200160405190810160405280939291908181526020018383808284378201915050505050509192919290505050610f65565b005b3480156103a757600080fd5b506103b06112f7565b6040518082815260200191505060405180910390f35b3480156103d257600080fd5b506103db6112fd565b6040518082815260200191505060405180910390f35b3480156103fd57600080fd5b5061041c60048036038101908080359060200190929190505050611303565b60405180888152602001878152602001868152602001851515151581526020018060200180602001848152602001838103835286818151815260200191508051906020019080838360005b83811015610482578082015181840152602081019050610467565b50505050905090810190601f1680156104af5780820380516001836020036101000a031916815260200191505b50838103825285818151815260200191508051906020019080838360005b838110156104e85780820151818401526020810190506104cd565b50505050905090810190601f1680156105155780820380516001836020036101000a031916815260200191505b50995050505050505050505060405180910390f35b34801561053657600080fd5b5061056b600480360381019080803573ffffffffffffffffffffffffffffffffffffffff169060200190929190505050611482565b60405180898152602001806020018060200180602001806020018881526020018773ffffffffffffffffffffffffffffffffffffffff1673ffffffffffffffffffffffffffffffffffffffff1681526020018615151515815260200185810385528c818151815260200191508051906020019080838360005b838110156105ff5780820151818401526020810190506105e4565b50505050905090810190601f16801561062c5780820380516001836020036101000a031916815260200191505b5085810384528b818151815260200191508051906020019080838360005b8381101561066557808201518184015260208101905061064a565b50505050905090810190601f1680156106925780820380516001836020036101000a031916815260200191505b5085810383528a818151815260200191508051906020019080838360005b838110156106cb5780820151818401526020810190506106b0565b50505050905090810190601f1680156106f85780820380516001836020036101000a031916815260200191505b50858103825289818151815260200191508051906020019080838360005b83811015610731578082015181840152602081019050610716565b50505050905090810190601f16801561075e5780820380516001836020036101000a031916815260200191505b509c5050505050505050505050505060405180910390f35b34801561078257600080fd5b5061078b611757565b6040518082815260200191505060405180910390f35b3480156107ad57600080fd5b506107e2600480360381019080803573ffffffffffffffffffffffffffffffffffffffff16906020019092919050505061175d565b604051808781526020018060200180602001806020018673ffffffffffffffffffffffffffffffffffffffff1673ffffffffffffffffffffffffffffffffffffffff16815260200185151515158152602001848103845289818151815260200191508051906020019080838360005b8381101561086c578082015181840152602081019050610851565b50505050905090810190601f1680156108995780820380516001836020036101000a031916815260200191505b50848103835288818151815260200191508051906020019080838360005b838110156108d25780820151818401526020810190506108b7565b50505050905090810190601f1680156108ff5780820380516001836020036101000a031916815260200191505b50848103825287818151815260200191508051906020019080838360005b8381101561093857808201518184015260208101905061091d565b50505050905090810190601f1680156109655780820380516001836020036101000a031916815260200191505b50995050505050505050505060405180910390f35b600360003373ffffffffffffffffffffffffffffffffffffffff1673ffffffffffffffffffffffffffffffffffffffff16815260200190815260200160002060060160149054906101000a900460ff16151515610a65576040517f08c379a00000000000000000000000000000000000000000000000000000000081526004018080602001828103825260298152602001807f4164647265737320616c72656164792068617320612073747564656e7420726581526020017f67697374657265642e000000000000000000000000000000000000000000000081525060400191505060405180910390fd5b600460003373ffffffffffffffffffffffffffffffffffffffff1673ffffffffffffffffffffffffffffffffffffffff16815260200190815260200160002060040160149054906101000a900460ff16151515610b50576040517f08c379a000000000000000000000000000000000000000000000000000000000815260040180806020018281038252603d8152602001807f416464726573732063616e6e6f74206861766520626f74682073747564656e7481526020017f20616e6420756e697665727369747920726567697374726174696f6e2e00000081525060400191505060405180910390fd5b6001600081548092919060010191905055506101006040519081016040528060015481526020018981526020018881526020018781526020018681526020018581526020013373ffffffffffffffffffffffffffffffffffffffff16815260200160011515815250600360003373ffffffffffffffffffffffffffffffffffffffff1673ffffffffffffffffffffffffffffffffffffffff168152602001908152602001600020600082015181600001556020820151816001019080519060200190610c1d929190611a7a565b506040820151816002019080519060200190610c3a929190611a7a565b506060820151816003019080519060200190610c57929190611a7a565b506080820151816004019080519060200190610c74929190611a7a565b5060a0820151816005015560c08201518160060160006101000a81548173ffffffffffffffffffffffffffffffffffffffff021916908373ffffffffffffffffffffffffffffffffffffffff16021790555060e08201518160060160146101000a81548160ff021916908315150217905550905050610cf86001548585858561198e565b5050505050505050565b600560006006600084815260200190815260200160002060020154815260200190815260200160002060009054906101000a900473ffffffffffffffffffffffffffffffffffffffff1673ffffffffffffffffffffffffffffffffffffffff163373ffffffffffffffffffffffffffffffffffffffff16141515610e14576040517f08c379a00000000000000000000000000000000000000000000000000000000081526004018080602001828103825260288152602001807f4e6f742061757468656e7469636174656420746f20766572696679207468697381526020017f206465677265652e00000000000000000000000000000000000000000000000081525060400191505060405180910390fd5b6006600082815260200190815260200160002060030160009054906101000a900460ff16151515610ead576040517f08c379a000000000000000000000000000000000000000000000000000000000815260040180806020018281038252601b8152602001807f44656772656520697320616c726561647920766572696669656421000000000081525060200191505060405180910390fd5b600081118015610ebf57506002548111155b1515610f33576040517f08c379a000000000000000000000000000000000000000000000000000000000815260040180806020018281038252601a8152602001807f506c6561736520706173732076616c696420646567726565496400000000000081525060200191505060405180910390fd5b60016006600083815260200190815260200160002060030160006101000a81548160ff02191690831515021790555050565b600460003373ffffffffffffffffffffffffffffffffffffffff1673ffffffffffffffffffffffffffffffffffffffff16815260200190815260200160002060040160149054906101000a900460ff16151515611050576040517f08c379a000000000000000000000000000000000000000000000000000000000815260040180806020018281038252602c8152602001807f4164647265737320616c726561647920686173206120756e697665727369747981526020017f20726567697374657265642e000000000000000000000000000000000000000081525060400191505060405180910390fd5b600360003373ffffffffffffffffffffffffffffffffffffffff1673ffffffffffffffffffffffffffffffffffffffff16815260200190815260200160002060060160149054906101000a900460ff1615151561113b576040517f08c379a000000000000000000000000000000000000000000000000000000000815260040180806020018281038252603d8152602001807f416464726573732063616e6e6f74206861766520626f74682073747564656e7481526020017f20616e6420756e697665727369747920726567697374726174696f6e2e00000081525060400191505060405180910390fd5b600080815480929190600101919050555033600560008054815260200190815260200160002060006101000a81548173ffffffffffffffffffffffffffffffffffffffff021916908373ffffffffffffffffffffffffffffffffffffffff16021790555060c06040519081016040528060005481526020018481526020018381526020018281526020013373ffffffffffffffffffffffffffffffffffffffff16815260200160011515815250600460003373ffffffffffffffffffffffffffffffffffffffff1673ffffffffffffffffffffffffffffffffffffffff16815260200190815260200160002060008201518160000155602082015181600101908051906020019061124d929190611a7a565b50604082015181600201908051906020019061126a929190611a7a565b506060820151816003019080519060200190611287929190611a7a565b5060808201518160040160006101000a81548173ffffffffffffffffffffffffffffffffffffffff021916908373ffffffffffffffffffffffffffffffffffffffff16021790555060a08201518160040160146101000a81548160ff021916908315150217905550905050505050565b60025481565b60005481565b60066020528060005260406000206000915090508060000154908060010154908060020154908060030160009054906101000a900460ff1690806004018054600181600116156101000203166002900480601f0160208091040260200160405190810160405280929190818152602001828054600181600116156101000203166002900480156113d45780601f106113a9576101008083540402835291602001916113d4565b820191906000526020600020905b8154815290600101906020018083116113b757829003601f168201915b505050505090806005018054600181600116156101000203166002900480601f0160208091040260200160405190810160405280929190818152602001828054600181600116156101000203166002900480156114725780601f1061144757610100808354040283529160200191611472565b820191906000526020600020905b81548152906001019060200180831161145557829003601f168201915b5050505050908060060154905087565b6003602052806000526040600020600091509050806000015490806001018054600181600116156101000203166002900480601f0160208091040260200160405190810160405280929190818152602001828054600181600116156101000203166002900480156115345780601f1061150957610100808354040283529160200191611534565b820191906000526020600020905b81548152906001019060200180831161151757829003601f168201915b505050505090806002018054600181600116156101000203166002900480601f0160208091040260200160405190810160405280929190818152602001828054600181600116156101000203166002900480156115d25780601f106115a7576101008083540402835291602001916115d2565b820191906000526020600020905b8154815290600101906020018083116115b557829003601f168201915b505050505090806003018054600181600116156101000203166002900480601f0160208091040260200160405190810160405280929190818152602001828054600181600116156101000203166002900480156116705780601f1061164557610100808354040283529160200191611670565b820191906000526020600020905b81548152906001019060200180831161165357829003601f168201915b505050505090806004018054600181600116156101000203166002900480601f01602080910402602001604051908101604052809291908181526020018280546001816001161561010002031660029004801561170e5780601f106116e35761010080835404028352916020019161170e565b820191906000526020600020905b8154815290600101906020018083116116f157829003601f168201915b5050505050908060050154908060060160009054906101000a900473ffffffffffffffffffffffffffffffffffffffff16908060060160149054906101000a900460ff16905088565b60015481565b6004602052806000526040600020600091509050806000015490806001018054600181600116156101000203166002900480601f01602080910402602001604051908101604052809291908181526020018280546001816001161561010002031660029004801561180f5780601f106117e45761010080835404028352916020019161180f565b820191906000526020600020905b8154815290600101906020018083116117f257829003601f168201915b505050505090806002018054600181600116156101000203166002900480601f0160208091040260200160405190810160405280929190818152602001828054600181600116156101000203166002900480156118ad5780601f10611882576101008083540402835291602001916118ad565b820191906000526020600020905b81548152906001019060200180831161189057829003601f168201915b505050505090806003018054600181600116156101000203166002900480601f01602080910402602001604051908101604052809291908181526020018280546001816001161561010002031660029004801561194b5780601f106119205761010080835404028352916020019161194b565b820191906000526020600020905b81548152906001019060200180831161192e57829003601f168201915b5050505050908060040160009054906101000a900473ffffffffffffffffffffffffffffffffffffffff16908060040160149054906101000a900460ff16905086565b60026000815480929190600101919050555060e06040519081016040528060025481526020018681526020018581526020016000151581526020018481526020018381526020018281525060066000600254815260200190815260200160002060008201518160000155602082015181600101556040820151816002015560608201518160030160006101000a81548160ff0219169083151502179055506080820151816004019080519060200190611a48929190611a7a565b5060a0820151816005019080519060200190611a65929190611a7a565b5060c082015181600601559050505050505050565b828054600181600116156101000203166002900490600052602060002090601f016020900481019282601f10611abb57805160ff1916838001178555611ae9565b82800160010185558215611ae9579182015b82811115611ae8578251825591602001919060010190611acd565b5b509050611af69190611afa565b5090565b611b1c91905b80821115611b18576000816000905550600101611b00565b5090565b905600a165627a7a72305820e6a959691818df387f2066c445a82d70b385d3fd7cba0d3820b70c39233ca5100029",
  "source": "pragma solidity ^0.4.19;\n\n/**\n * Smart contract for the student attestation\n */\ncontract Attestation {\n    /**\n     * Number of universities registered on the N/w.\n     */\n    uint public universityCount;\n    /**\n     * Represents a single university\n     */\n    struct University {\n        uint id;\n        string name;\n        string location;\n        string email;\n        address universityAddr;\n        bool isInit;\n    }\n\n    /**\n     * Number of students registered on the N/w.\n     */\n    uint public studentCount;\n    /**\n     * Represents a single student\n     */\n    struct Student {\n        uint id;\n        string name;\n        string dob;\n        string email;\n        string gpa;\n        uint universityId;\n        address studentAddr;\n        bool isInit;\n    }\n\n    /**\n     * Number of degrees awarded by the N/w.\n     */\n    uint public degreeCount;\n    /**\n     * Represents a single degree.\n     */\n    struct Degree {\n        uint id;\n        uint studentId;\n        uint universityId;\n        bool verified;\n        string degreeName;\n        string courseName;\n        uint passYear;\n    }\n\n    /**\n     * Maps an Ethereum account to a particular Student\n     */\n    mapping(address => Student) public students;\n    /**\n     * Maps an Ethereum account to a particular University\n     */\n    mapping(address => University) public universities;\n    /**\n     * Maps a UniversityId to an Ethereum account\n     */\n    mapping(uint => address) private helperMapping;\n    /**\n     * Maps a Degree id to a particular Degree\n     */\n    mapping(uint => Degree) public degrees;\n\n    /**\n     * Constructor to initialize count variables to 0.\n     */\n    constructor() public {\n        universityCount = 0;\n        studentCount = 0;\n        degreeCount = 0;\n    }\n\n    /**\n     * Adds a new university on the N/w and updates the count.\n     */\n    function addUniversity(string name, string location, string email) public {\n        require(!universities[msg.sender].isInit, \"Address already has a university registered.\");\n        require(!students[msg.sender].isInit, \"Address cannot have both student and university registration.\");\n        universityCount++;\n        helperMapping[universityCount] = msg.sender;\n        universities[msg.sender] = University(\n            universityCount, name, location, email, msg.sender, true\n        );\n    }\n\n    /**\n     * Adds a new student on the N/w and updates the count.\n     */\n    function addStudent(string name, string dob, string email, string gpa, uint universityId, string dn, string cn, uint passYear) public {\n        require(!students[msg.sender].isInit, \"Address already has a student registered.\");\n        require(!universities[msg.sender].isInit, \"Address cannot have both student and university registration.\");\n        studentCount++;\n        students[msg.sender] = Student(\n            studentCount, name, dob, email, gpa, universityId, msg.sender, true\n        );\n        addDegree(studentCount, universityId, dn, cn, passYear);\n    }\n\n    /**\n     * Adds a new degree that is awaiting approval\n     */\n    function addDegree(uint studentId, uint universityId, string degreeName, string courseName, uint passYear) private {\n        degreeCount++;\n        degrees[degreeCount] = Degree(\n            degreeCount, studentId, universityId, false, degreeName, courseName, passYear\n        );\n    }\n\n    /**\n     * Approves a pending degree by setting the verified flag to true.\n     */\n    function verifyDegree(uint degreeId) public {\n        require(msg.sender == helperMapping[degrees[degreeId].universityId], \"Not authenticated to verify this degree.\");\n        require(!degrees[degreeId].verified, \"Degree is already verified!\");\n        require(degreeId > 0 && degreeId <= degreeCount, \"Please pass valid degreeId\");\n        degrees[degreeId].verified = true;\n    }\n}",
  "sourcePath": "/home/jimil/Desktop/GBHack2018/Attestation/contracts/Attestation.sol",
  "compiler": {
    "name": "solc",
    "version": "0.4.24+commit.e67f0147.Emscripten.clang"
  },
  "schemaVersion": "2.0.1",
  "updatedAt": "2018-12-21T13:51:16.259Z"
}